:020000040800F2
:1000000000900020D5010008250200084D3C0008A2
:1000100000000000000000000000000000000000E0
:1000200000000000000000000000000025020008A1
:100030000000000000000000250200082502000862
:1000400025020008250200082502000825020008F4
:1000500025020008250200082502000825020008E4
:10006000250200086514000875140008951400089E
:1000700025020008250200082502000825020008C4
:1000800025020008250200082502000825020008B4
:1000900025020008250200082502000825020008A4
:1000A0002502000895120008A51200082502000884
:1000B0002502000825020008250200080448054B17
:1000C00010B5834203D0044B002B00D0984710BDDD
:1000D00048020020480200200000000006480749AE
:1000E000091A8B10C90FC91810B5491003D0044B59
:1000F000002B00D0984710BD480200204802002085
:100100000000000010B5074C2378002B09D1FFF741
:10011000D5FF054B002B02D0044800E000BF0123AF
:10012000237010BD6002002000000000348D000824
:10013000054B10B5002B03D00449054800E000BF73
:10014000FFF7CCFF10BDC046000000006402002095
:10015000348D0008402292029A1A92467047C04697
:10016000174B002B00D1134B9D46FFF7F3FF0021E7
:100170008B460F461348144A121A05F037FD0E4BF2
:10018000002B00D098470D4B002B00D09847002043
:10019000002104000D000D48002802D00C4804F096
:1001A00053FE05F091FD2000290005F09BF805F0B5
:1001B00025F8C04600000800000000009552000825
:1001C0000090002060020020780D0020494E0008B9
:1001D000000000000D48854602F01AFC0C480D494D
:1001E0000D4A002302E0D458C4500433C4188C4292
:1001F000F9D30A4A0A4C002301E013600432A242F8
:10020000FBD3FFF7ADFF7047FEE700000090002032
:10021000C000002048020020408D0008600200203D
:10022000780D0020FEE7000070B594B03822002160
:1002300006A802AD05F0DAFC10220021280005F026
:10024000D5FC802180201C4B4905DA6B80000A43D5
:10025000DA63DB6B02260B400193019B01F0D2FABB
:1002600080235B000993C03B0B93383B10938023A2
:100270009B02119380239B041293802300249B05EF
:1002800006A8139306960A940D960E960F9401F005
:1002900015FB03002000A3420BD1072331002800E7
:1002A000029303960494059401F074FD434258416F
:1002B000C0B214B070BDC0460010024010B5FFF7C8
:1002C000B3FF002802D1024804F084FC10BDC046F0
:1002D000087F0008F8B500F01FFE041E33DB1A4F3C
:1002E0008600F05900282ED090236343174D5A59A9
:1002F0008023D169194209D0D169194206D0126808
:100300001A4203D0124B01211B6898479023634384
:10031000EA582023D16919420AD0D169194207D07D
:1003200012681A4204D00A4B00211B68B85998473A
:10033000902308226343EB58D969114203D0D9694D
:10034000114200D01A62F8BD500500208002002042
:100350007C02002010B50548FFF7BCFF0448FFF7FA
:10036000B9FF0448FFF7B6FF10BDC0460048004083
:10037000004C00400080004010B50248FFF7AAFF83
:1003800010BDC0460044004010B50248FFF7A2FF70
:1003900010BDC0460038014001238340014A13606C
:1003A0007047C04600E100E001238340034AD36761
:1003B000BFF34F8FBFF36F8F7047C04604E100E07B
:1003C000034B1960436803499B00CA507047C046FD
:1003D0007C0200205005002070B548C821488342A7
:1003E00016D11B20204C90257543204BEB58002A3A
:1003F00025D0002920D1202219680A431A601C4BFD
:100400009A68030010339B009C50FFF7C5FF70BD36
:100410001848834202D11C20174CE4E71748184CB7
:100420001840A04202D11D20164CDCE7164883423A
:10043000F9D000242000D6E780221968DDE71A6889
:10044000002908D120318A431A601B681B06DED4BC
:10045000FFF7AAFFDBE780218A431A601B689B062F
:10046000F6D5D4E700380140890300088002002057
:1004700000ED00E00044004079030008FFFBFFFFAF
:10048000004800405503000800800040F8B5902364
:1004900080214768174E7B43F3189A68050049018D
:1004A0008A4214D11C6963425C412402FF349023C8
:1004B0007B43F31860331C80280000F065FC0028A3
:1004C000FAD090237B43F358586A2040F8BD002AA5
:1004D00005D11B69FF24002BE9D0803CE7E7802190
:1004E000002449058A42E2D11B697F34002BDED00B
:1004F000403CDCE78002002070B505000C00466837
:10050000280000F051FC0028FAD090227243034BDF
:10051000E405D358E40D9C6270BDC0468002002003
:100520007FB5052839D81E4B05F086FC030F19232B
:10053000372D0121A0205A6BC0050A435A635B6B1B
:100540000B400193019B07B000BD02215A6B154877
:100550000A435A635B6B0B400293029BF3E704214F
:100560005A6B11480A435A635B6B0B400393039B1E
:10057000E9E708215A6B0D480A435A635B6B0B404D
:100580000493049BDFE720215A6B09480A435A630E
:100590005B6B0B400593059BD5E7064804F01AFBFF
:1005A000001002400004005000080050000C0050F1
:1005B000001400501C7F000810B50400431C04D137
:1005C00077220649064804F025F9F021890000F059
:1005D0008DFA0F2301201C40A04010BDB27F0008FF
:1005E000BD7F0008F8B504000E0001824B1C17D037
:1005F0000F2708093840FFF793FF05003000FFF789
:10060000DBFF238A074A3B409B009B586561A3613F
:100610002B0010336360283508332060A360E56049
:10062000F8BDC046EC8A000810B51023C05E00F08B
:10063000D5FA10BD032310B5446980692268404390
:100640004343DB431340002901D1236010BD034322
:10065000FBE710B500F046FE002010BDF7B504F032
:10066000A9F98023DB055F6A164E174B1C8801939E
:100670003368E41A8023E4195B029C421DD3FA21FB
:100680002000890005F0F6FBFA2105008900200012
:1006900005F076FC8CB205E00C4A0135A4189C42AA
:1006A000FAD2A4B2019B37601C80094C23685B1905
:1006B000236004F095F92068FEBDFA2300259B0015
:1006C000EDE7C0466C0500206405002018FCFFFF24
:1006D0006805002000487047E48A0008024BD8698A
:1006E000DA698242FBD17047007C004010B504F00B
:1006F00061F90122064B1A700022064B1A70802302
:10070000054A9B025360054A136004F069F910BD65
:10071000800500207F050020FCE100E000E100E012
:1007200010B504F047F9144B1A78002A08D10821B3
:10073000124A126810680842FCD0516001221A70F7
:100740000F4C2378002B03D004F02AFB00232370E6
:1007500000220C4B1A700C4B1A7080230B4A9B0220
:10076000D367BFF34F8FBFF36F8FC022084952008A
:100770008B5004F035F910BD7C0500208405002065
:10078000740500207F0500208005002004E100E0C2
:1007900000E100E0F0B53E4B9DB01C68002C03D09A
:1007A000FFF7BEFF1DB0F0BD01253022210002A8D9
:1007B0001D6005F01BFA342221000FA805F016FA7F
:1007C00004230E93FD33FF330193C0230EA81B03B4
:1007D0001095079301F072F8002802D02D4804F01C
:1007E000F9F901A801F0F8FB002801D02A48F6E742
:1007F00080212A4B0906DA6B294C0A43DA63DA6B4B
:10080000284ED20FD2070092009ADA6A1143D962B9
:10081000DA6A52005208DA62234B606023602300D8
:10082000363318708023A060DB02E061E060206155
:1008300020626062A062E062206320006661A361C2
:1008400000F006FF071E1948C9D1194B194A9B68C9
:1008500020000833DA678023174A9B05D16F0B43CA
:10086000D367236831009A6815439D6008259A680C
:100870002A439A6000F04EFF23685D605F611A684A
:100880002A42FCD001225D600C4B1A708AE7C046F8
:1008900070050020D07F0008E97F000800100240AA
:1008A00084050020FFFF0000007C00400A80000853
:1008B00000ED00E0B1090008041802407C050020AA
:1008C00010B504F077F80122054B80211B688902DE
:1008D0005A60C023034A5B00D15004F081F810BD78
:1008E0008405002000E100E070B5040004F062F827
:1008F000FFF7F4FE244B05001C608021234A890287
:100900001160234E3278002A1BD12248621F2249EF
:1009100082420DD9214A95420AD901220634A4B255
:100920000A701C6001221E4B1A7004F059F870BD49
:1009300000220A7019681B4BA94200D301321A70B9
:10094000F0E7FFF7BDFF2B006A1D99B2A14201D16C
:100950000534A4B201339342F7D1134B1B68AC4268
:1009600010D20E4A95420DD8012252425A610023FC
:100970000E4C33702378002BD7D104F0FBF9012300
:100980002370D2E75C61F2E77805002000E100E027
:100990007C050020F5FF00007D050020FAFF000027
:1009A0007F0500207E0500208405002074050020BE
:1009B000F8B503F0FFFF2E4B2E4C1A78002A06D014
:1009C0000021197001232268536002F0AFFE01225A
:1009D00023681968114205D09968114202D05A6003
:1009E00002F0A4FE082223681968114225D09968F4
:1009F000114222D05A60204B204C073A1A702378BB
:100A0000002B03D004F0CCF9002323701C4C237876
:100A1000002B12D01B4D1C4E2B78DFB2002B15D0B3
:100A2000FFF75CFE3368063080B2984208D3FFF7C8
:100A30005DFE00232B700023237003F0D1FFF8BD6F
:100A40003068063880B2FFF74FFFF2E70F4D2B7882
:100A5000002B08D0FFF742FE3368984203D3FFF71C
:100A600045FE2F70E7E73068FFF73EFFE3E7C0463B
:100A700080050020840500207C05002074050020EE
:100A80007F0500207D050020780500207E050020E0
:100A900010B5FFF745FE10BD7047000010B50C4CB7
:100AA00001F0BEFF00F012FDE36D9B0705D400F0DE
:100AB00059FE1822E36D9343E365FFF7FFFB01F056
:100AC000AFFFFFF7E9FF0122024B1A6010BDC046DD
:100AD00000100240BC05002010B5032449434C43DC
:100AE0005143C368A3430B43C36010BDF7B5060071
:100AF0000C00431C44D007230B4000938F110F239D
:100B00000100334A194089008D58000918401F40E0
:100B1000FFF706FD2A0003216A4351430300C8433F
:100B200001900F2F0AD19868014399600099032919
:100B300041D8080005F080F94446250957439968D3
:100B4000019801400F439F60F0E70320424319687A
:100B5000019E31400A431A60009A013A012A04D8E2
:100B6000220731D55A682A435A60A206920F012AF9
:100B700002D0022A00D0002229001800FFF7ACFFA3
:100B8000F7BD0F21A7120F4036070BD5280A4043A7
:100B9000404341435E6A78438E43310001435962CA
:100BA0000220D3E71600564371437E43186A8843F8
:100BB00030431862F4E7D5220649074803F02AFEBD
:100BC0000020C3E70120C1E75A68AA43CCE7C0462A
:100BD000EC8A0008958000087B8A000870B50E003A
:100BE000421C2BD00F240100174A214089008D5848
:100BF00000092040FFF794FC2900032369434B437D
:100C000004000068184005F035F90138012805D8BE
:100C1000F31E022B0AD863682B436360701E0428FE
:100C20000FD805F009F9060C060E0C006368AB43FB
:100C3000F3E7012229002000FFF74EFF70BD0222DA
:100C4000F8E70022F6E7C046EC8A00080FB407B5C3
:100C5000054B04AA1B6802CAD868019203F018FC6D
:100C600003B008BC04B01847E40100200368374A09
:100C700010B50400934234D18022354BD201196B58
:100C80000A431A631A6B33490A401A631A6C0A4002
:100C90001A641823E05E3049FFF728FF1A23E05E4C
:100CA0002D49FFF723FF2D4A236A1340802252006B
:100CB000934204D12423E05E2749FFF717FF284A17
:100CC000236A134080229200934204D12623E05EDF
:100CD0002149FFF70BFF00216268224B9200D1509F
:100CE00010BD214A93420DD18022194B9202D96A3C
:100CF0000A43DA62DA6A1D490A40DA62DA6B0A40AC
:100D0000DA63C6E71A4A934208D18022104BD20216
:100D1000D96A0A43DA62DA6A1649EDE7164A93425B
:100D200008D180220A4B1203D96A0A43DA62DA6ACE
:100D30001249E1E7124A9342ABD18022044B52039D
:100D4000D96A0A43DA62DA6A0E49D5E70038014007
:100D500000100240FFBFFFFFC3030000FFFDFFFFC5
:100D6000FFFEFFFF5005002000440040FFFFFDFF95
:100D700000480040FFFFFBFF004C0040FFFFF7FF73
:100D800000800040FFFFEFFF90224168054B4A437F
:100D9000D3580822D969114200D01A62D869800656
:100DA000C00F70478002002090224168034B4A43E5
:100DB000D358D8690006C00F7047C0468002002093
:100DC0005622F8B59023944646682749734307682E
:100DD00085685C185F506560C368A444A3600369BC
:100DE0006246E36043692361036AA3610023E36110
:100DF000138054229446A444624613805E22944693
:100E0000A444624613805C229446A4446246138044
:100E1000962223625201954200D2073390227243F8
:100E20008A1853620023936253661A23C25E082312
:100E3000013205D01823C25E0423013200D00833EA
:100E40009022724389184B61084B9F4205D1084B91
:100E500020009D4205D801F0ABFD200001F074FD9B
:100E6000F8BD01F0BDFDF8E78002002000800040E1
:100E7000AA2A000070B5234B02689CB005000C0044
:100E800081609A4232D13022002102A804F0AEFEE5
:100E9000102301931C4B9C4224DC1C4E802332689F
:100EA000DB00110019401A420ED134220FA804F0C1
:100EB0009DFE02230E93FE331193FF3B15930EA864
:100EC0003F33139300F0FAFC33685B050AD58023A7
:100ED00001A81B01049301F07FF82800FFF770FFC1
:100EE00000280CD021000A48FFF7B0FE2800FFF7C9
:100EF00067FF002803D021000648FFF7A7FE1CB0BB
:100F000070BDC04600800040556151000010024095
:100F10009E800008E98000080B4A030000209342ED
:100F200010D00A4A013093420CD0094A0130934252
:100F300008D0084A0130934204D0074A0130934256
:100F400000D005387047C0460038014000440040DA
:100F500000480040004C004000800040F0B50E000A
:100F6000594B8DB01900040030000192029302F039
:100F70000BFC564F03903900019802F005FC01006C
:100F8000039802F0DFFB02990500300002F010FC2C
:100F900039000490019802F00BFC01270590022E05
:100FA0000DD0019B032B0AD00220029902F0ECFB2A
:100FB000039B0027984202D1454803F00BFE2560B1
:100FC0006B1C04D141224349434803F023FC434BAB
:100FD0009D4213D18021424BC9011A6C0A431A6405
:100FE0001B6C0B400793079B2800FFF795FF606081
:100FF00001303BD1A02237493A48E6E73A4B9D42BF
:101000000AD18021364B8902DA6B0A43DA63DB6B43
:101010000B400893089BE7E7344B9D420AD180219F
:101020002F4BC902DA6B0A43DA63DB6B0B4009937F
:10103000099BD9E72E4B9D420AD18021284B0903F9
:10104000DA6B0A43DA63DB6B0B400A930A9BCBE74C
:10105000284B9D42C8D18021214B4903DA6B0A43BA
:10106000DA63DB6B0B400B930B9BBDE730000499FD
:10107000FFF73CFD01213000FFF7B0FD0599019815
:10108000FFF734FD01980121FFF7A8FD1A4A7B42C2
:101090001340E12252029B18A3600023E360236106
:1010A00063612362019B200026836383FFF788FE30
:1010B000002F07D00122114B21001A6010484B323B
:1010C00004F029FE0DB0F0BD247E00084C7D000820
:1010D00013810008BD810008CA8100080038014062
:1010E00000100240E6810008004400400048004033
:1010F000004C0040008000408063FEFF0C06002092
:10110000C00500200123194A00201168194203D0AC
:10111000D0694006C00F58400122154B1968114292
:1011200004D0DB695B06DB0F5A4010430122114BF0
:101130001968114204D0DB695B06DB0F5A4010438B
:1011400001220D4B1968114204D0DB695B06DB0FED
:101150005A4010430122094B1968114204D0DB693F
:101160005B06DB0F5A4010437047C0460038014011
:101170000044004000480040004C00400080004017
:101180008022D205516A536A5B1A8342FBD37047AF
:1011900010B5002486B01022210002A8019404F0AA
:1011A00025FD01A902A800F0FDFE0723019902A870
:1011B000029303940494059400F0ECFDA04202D045
:1011C000024803F007FD06B010BDC046F8810008D4
:1011D00000B591B03822002102A804F007FD80215B
:1011E0000E4B4905DA6B02A80A43DA63DB6B0B404E
:1011F0000193019B00F08CFE02230293FE330593C2
:10120000F03B0793002302A8099300F057FB002846
:1012100002D0034803F0DEFC11B000BD0010024014
:101220002082000810B503F0C5FB074B01211A68A6
:1012300080231000DB0118401A4200D0180000F093
:101240009BFA03F0CDFB10BD0070004070B5FFF7B6
:1012500059FF041E1AD103F0ADFB00F0D7F880202F
:101260000121C00100F0ACFA094D2C60FFF7B0FF7E
:10127000FFF78EFFFFF722F8FA204000FFF780FF0C
:1012800000F0DAF801232B6003F0AAFB70BDC04622
:10129000BC05002010B5024B186800F0A3FF10BD7C
:1012A0001406002010B5024B186800F09BFF10BD1B
:1012B000100600208023084ADB0510B513600222C7
:1012C0001969114206D0D968114203D0053A1A6152
:1012D00002F0A8FC10BDC04624060020004870475C
:1012E0002C8B000830B587B002AD6946280000F0AD
:1012F00059FE00F0F9FD01221D4B0090D96B1D4CE9
:101300001143D963D96B114001910199D96A1143F5
:10131000D962D96A9143D9628023DB052360012316
:101320005B42E360059B002B1FD1134904F0A2FD33
:1013300000250138606020002561A5606561A56118
:1013400001F030F80D4B0E4A9B68DA6780220D4B96
:1013500012021A602900200001F05CF802212268C4
:10136000D3688B43D36007B030BD4000DDE7C04693
:10137000001002402406002040420F0000ED00E073
:10138000B512000800E100E00221054810B502682E
:10139000D3688B43D360002101F03CF810BDC046F8
:1013A000240600208023DB05586A70470322054B82
:1013B00052421B6858631A61D96805320A43DA60E1
:1013C0007047C046240600200322064B52421B6889
:1013D0001A615969053211435961D9680A43DA60C3
:1013E0007047C046240600200221034B1A68D368C8
:1013F0008B43D3607047C046240600200322024B73
:1014000052421B681A61704724060020064B074AA7
:101410001B68596A11605A6B054B1A608023DB0503
:10142000DA68044B1A60704724060020200600206A
:101430001C06002018060020064B074A1B6812688D
:101440005A62064A12685A63054B1A688023DB0504
:10145000DA60704724060020200600201C060020C9
:101460001806002010B5024B186800F07DF810BD7A
:101470007006002010B5064C6068002801D000F00E
:1014800073F8A068002801D000F06EF810BDC046C7
:101490007006002010B50B4CE068002801D000F069
:1014A00063F82069002801D000F05EF86069002828
:1014B00001D000F059F8A069002801D000F054F8DC
:1014C00010BDC04670060020704700008023084A07
:1014D0005B00116810B50B4303201360FFF7B9F8E8
:1014E000041E03D1FFF7F0FF200010BD0124FBE72D
:1014F00000200240F8B5811DCB7F022B03D00423CE
:10150000C3630120F8BD0E2402681C271368456CD4
:10151000A3431360012314689C4314602A68104C91
:1015200022402A60026C0F4D3A4093406E6833436C
:101530006B60C26C836C5A60036D002B05D01A6817
:1015400022401A60436D826D5A6001230022CB77DE
:10155000431DDA77836B934200D098470020D1E790
:10156000FFFEFFFF00000240F8B51C240427016CB9
:10157000264A21403C008C40166803681D682642BC
:101580000FD03D420DD01968890602D41968B943BD
:10159000196053681C43036B5460002B1BD09847A1
:1015A00019E002273C008C40264215D03D4213D062
:1015B0001968890606D40A251968A943196001210A
:1015C000831DD97753681C4354600022431DDA778A
:1015D000C36A9342E3D1F8BD082427008F403E42FE
:1015E000F9D02542F7D00E251C68AC431C600123BE
:1015F0001D008D402900546821435160821DC36342
:10160000D3770022431DDA77436BE2E70000024004
:101610000C4B70B505000C0018680B4904F02AFC4F
:10162000FA239B004343296800200325013B002B3C
:1016300000D128000A682240A24201D0002BF5D137
:1016400070BDC046C8000020204E0000704700005A
:10165000F7B504000120002C4BD0250036352B783F
:10166000DAB2002B05D12300353320001A70FFF7C2
:10167000EDFF02232B7021686068CB68A66A012801
:1016800003D080221204964201D11E229343626944
:101690001C4FBA4201D01C4F3B401C4F1F40A36857
:1016A00001979C460300674633431F43236A3B432D
:1016B000676A3B43019F3B4300281BD1E0692769D0
:1016C0003843034380200004864215D00D488242EF
:1016D00004D0A0690243E069024313430C4ACB6083
:1016E000E36A914201D1226B13434B620123002034
:1016F0002B70FEBD0128E5D1E06826693043034325
:10170000E4E7C046FFFF00003F1FFFFFFEF119FFA7
:10171000007C004070B50500022236352A70426810
:101720000B000468012A08D08022816A12049142C9
:1017300003D1E2680A490A40E260012610212269C9
:10174000324322616160A361FFF762FF032805D085
:10175000042300202269134323612E7070BDC0460C
:10176000FFF1FFFF8023034A5B0011680B43136006
:101770007047C0460070004080230F4A10B5526980
:101780000C009B0000280CD01A4201D100F066F832
:1017900004210A4A13698B431361012C08D130BF1D
:1017A00005E01A42F4D000F063F80028F0D010BD34
:1017B00040BF20BF20BFFAE70070004000ED00E00E
:1017C00010B50E4B0724002811D001221868A04341
:1017D00002431A6004220A4B186902431A61012964
:1017E00008D130BF04211A698A431A6110BD1A68F2
:1017F000A243EEE740BF20BF20BFF3E700700040E8
:1018000000ED00E010B5114C1149236802000B40B7
:1018100003432360802300209B009A420ED10D4B8E
:101820000D4918680623584304F024FB8022431C0A
:10183000D200616908001040114200D110BD002B98
:1018400001D0013BF5E70320F8E7C04600700040F7
:10185000FFF9FFFFC800002040420F008023034A29
:10186000DB0111680B4313607047C04600700040F5
:101870000E4B10B5186806230D49584304F0FAFAC8
:101880000C4A0D49136801300B4080211360890018
:10189000546923000B400C4201D1180010BD0028F0
:1018A00001D00138F4E70320F8E7C046C800002063
:1018B00040420F0000700040FFBFFFFFF0B5040082
:1018C00085B0002802D1012005B0F0BD0368DB0718
:1018D00010D423689B075CD423681B0700D5C1E0A4
:1018E00023685B0700D5F2E0E369002B00D079E1C3
:1018F0000020E9E73822AF4DAB681340EA68102BAF
:1019000009D1D3439B0708D12B689B03E1D56368BA
:10191000002BDED1D7E7082BF6D080226368520275
:10192000934211D12A6813432B60FEF797FE80275C
:101930000600BF022B683B42CBD1FEF78FFE801B17
:101940006428F7D90320BFE7A021C9028B4208D140
:1019500080232968DB020B432B602B681A432A6023
:10196000E3E72A6894490A402A602A6893490A40B2
:101970002A60002BD9D1FEF771FE80270600BF0236
:101980002B683B42A5D0FEF769FE801B6428F7D97F
:10199000D8E73822874DAB681340EA68102B28D16E
:1019A00003210A40022A26D12A68520503D5E2689B
:1019B000002A00D187E76968626981481202014004
:1019C0000A436A60002B0CD12B687E4A7E49134083
:1019D000226913432B602B687C4A9B045B0FDA401F
:1019E0000A607B4B1868FEF734FE002800D173E7CD
:1019F00069E7002BD8D0E368002B20D02B68714A10
:101A0000802713402269FF0013432B6080232A683C
:101A10005B0013432B60FEF721FE06002B683B4260
:101A200007D06A68636966491B020A4013436B600A
:101A300052E7FEF713FE801B0228EFD982E72B68DE
:101A4000644A802713402B60FEF708FE0600FF0063
:101A50002B683B4200D13FE7FEF700FE801B0228C7
:101A6000F6D96FE73822534DAB681340182B08D1D5
:101A70002B6E9B0700D433E7A369002B00D02FE720
:101A800021E7A2690123002A10D02A6E02271343FE
:101A90002B66FEF7E3FD06002B6E3B4200D01FE7EE
:101AA000FEF7DCFD801B0228F6D94BE72A6E0227E1
:101AB0009A432A66FEF7D2FD06002B6E3B4200D108
:101AC0000EE7FEF7CBFD801B0228F6D93AE7382255
:101AD000384DAB681340202B08D1EB6D9B0700D429
:101AE00002E7A368002B00D0FEE6ECE6802200218E
:101AF000EB6B52050091134208D1EB6B1343EB6380
:101B0000EB6B13400393039B012300938027324E1A
:101B10007F0033683B4215D0A368012B22D1EA6DC8
:101B20001343EB65FEF79AFD02270600EB6D3B427F
:101B300038D0009B012B00D0D6E6EB6B274A134030
:101B4000EB63D1E633683B433360FEF787FD0190DA
:101B500033683B42E0D1FEF781FD019BC01A0228A9
:101B6000F6D9EFE6EA6D052B05D1013B1343EB6592
:101B7000EA6D0123D4E701218A43EA65EA6D033166
:101B80008A43EA65002BCDD1FEF768FD02270600E7
:101B9000EB6D3B42CDD0FEF761FD114B801B9842AF
:101BA000F6D9CFE6FEF75AFD0D4B801B9842BDD902
:101BB000C8E6C04600100240FFFFFEFFFFFFFBFF2C
:101BC000FF80FFFFFFC7FFFFC80000200024F400D4
:101BD000C4000020FFFEFFFF00700040FFFFFFEF8A
:101BE000881300003821454DAA680A40102A57D0B2
:101BF000434A022B3AD12B68802713402B60FEF713
:101C00002DFD0600BF042B683B4229D1616A236A7F
:101C1000EA680B433B4980260A401343E26AB60454
:101C20001343226B1343626B1343A26A12021343E2
:101C3000EB6080232A685B0413432B608023EA68EF
:101C40005B051343EB60FEF709FD04002B6833428C
:101C500000D04DE6FEF702FD001B0228F6D971E622
:101C6000FEF7FCFC801B0228CDD96BE62B68802692
:101C7000134003222B60EB68B6049343EB60EB68E0
:101C8000214A1340EB60FEF7E9FC04002B68334265
:101C900000D12DE6FEF7E2FC001B0228F6D951E642
:101CA000012B00D10FE60322E868216A02408A4234
:101CB00000D008E67022616A02408A4200D002E643
:101CC000FE21A26AC90101401202914200D0FAE548
:101CD000F822E16A920302408A4200D0F3E5E02252
:101CE000216B120502408A4200D0ECE5636B400F85
:101CF0004007C01A431E9841C0B2E5E500100240FB
:101D0000FFFFFFFE8C80C111FFFFFEEE382370B590
:101D10001D4CA2681A4205D123681C489B045B0F26
:101D2000D84070BDA2681A40082A27D0A2681A407D
:101D3000102A17D1E368E168DB43E5684906490FDB
:101D40006F322D0A013115409B0709D1104804F06C
:101D500091F8E1686843490F013104F08BF8E0E73E
:101D60000A48F4E7A2681A40202A09D0A268002095
:101D70001340182BD5D1FA20C001D2E70448D0E790
:101D800080200002CDE7C046001002400024F4008D
:101D900000127A00F7B504000D00002801D10120DF
:101DA000FEBD0727484E33683B408B422AD322684A
:101DB00093073BD4D20748D4072733683B40AB4254
:101DC0000AD93368BB432B433360FEF747FC0190CD
:101DD00033683B40AB4268D123683C4D5B076CD411
:101DE000FFF794FFAB683A491B051B0F9B005B583C
:101DF0001F210B40D840374A374B10601868FEF758
:101E000028FCCDE73368BB430B433360FEF726FC69
:101E1000019033683B40AB42C9D0FEF71FFC019BE9
:101E2000C01A2E4B9842F4D90320B9E7274953072B
:101E300004D5E0238868DB0103438B608B68284866
:101E40000340A06803438B60B4E760681F4F03281A
:101E500029D803F0F1FF20021C243B689B039ED588
:101E60000722BB6893430343BB60FEF7F7FB019077
:101E70003823BA681A406368DB009A429CD0FEF7A8
:101E8000EDFB019BC01A154B9842F1D9CCE73B689A
:101E90009B01E5D483E73B685B05E1D47FE73B6EBC
:101EA0009B07DDD47BE7FB6DFAE7FEF7D7FB019BD1
:101EB000C01A0A4B98428BD9B6E7AB68094A13405F
:101EC000E2681343AB608BE7002002400010024041
:101ED0006C8B0008C8000020C4000020881300009C
:101EE000FFF0FFFFFF8FFFFF064B07499B68074A84
:101EF0005B045B0F9B005B581F2110680B40D840B0
:101F00007047C046001002404C8B0008C8000020FB
:101F10000F230360224B1A6852033ED480211A68B3
:101F200049020A40802142601A6849000A40E021C3
:101F3000C2605A6889015204520E42611A680A400E
:101F40000261D96D0522490702D40121DA6D0A40E8
:101F5000012182601A6E0A4082611A68D201D20F92
:101F60005218C261DA6802310A400262DA686D31E1
:101F70000A40F8214262DA6889035204520E8262F2
:101F8000DA680A40E021C262DA6809050A400263A1
:101F9000DB685B0F5B0743637047A022D202C1E797
:101FA00000100240072230B5F025094B02609C6802
:101FB0002D01144044609C682C408460E0249B68A0
:101FC000E4012340C360034B1B6813400B6030BD2A
:101FD0000010024000200240F0B50368040085B004
:101FE00000209B0352D58022704D5205EB6B009070
:101FF000134208D1EB6B1343EB63EB6B134003937A
:10200000039B012300938027694E7F0033683B4385
:102010003360FEF723FB019033683B4228D0EA6D22
:10202000C02311009B00634E19401A4219D0236B44
:102030008B4216D08022EB6DE86D190052020243EC
:10204000EA65EA6D5C4831400240EA65E965DB0714
:1020500007D5FEF703FB07000222EB6D134200D108
:102060009CE0EB6D226B334013430020EB6506E0F0
:10207000FEF7F4FA019BC01A0228CDD90320009B79
:10208000012B03D1EB6B4D4A1340EB632368DA0756
:1020900006D5032545494A6DAA4365682A434A6522
:1020A0009A0706D50C2541494A6DAA43A5682A43DB
:1020B0004A65DA0606D53D49414D4A6D2A40E56834
:1020C0002A434A659A0506D538493E4D4A6D2A404D
:1020D000A5692A434A655A0506D534493A4D4A6DE1
:1020E0002A40E5692A434A659A0606D52F49374DA5
:1020F0004A6D2A4025692A434A655A040FD52B495F
:10210000256A4A6D920092082A434A658022D205C8
:10211000954204D18022CD6852022A43CA601A0334
:1021200006D5402521494A6DAA43656A2A434A6576
:102130009A020FD51D49264E4A6DA56A32402A43A0
:102140004A658022D203954204D18022CD68520490
:102150002A43CA605A020DD5144D1E4E696DE26ABB
:10216000314011436965802149048A4202D1E968FE
:102170000A43EA601B050FD50C4A6169536D164C82
:1021800023400B4353658023DB01994204D1802314
:10219000D1685B020B43D36005B0F0BDFEF75EFA79
:1021A0000E4BC01B984200D856E767E7001002406C
:1021B00000700040FFFCFFFFFFFFFEFFFFFFFFEF8F
:1021C000FFF3FFFFFFFFF3FFFFFFCFFFFFCFFFFF97
:1021D000FFFFBFFFFFFFFFFEFF3FFFFF8813000071
:1021E000704700000368F0B504005868996801253D
:1021F0008A09160085B02E402A4208D1294206D00D
:10220000450604D5E36C2000984705B0F0BD8D0766
:1022100003D5050601D5236DF5E780274D097F001D
:1022200039402A43FF3F3A400A43EED08206ECD5BC
:10223000002E0FD022005D321278032A50D00422E3
:10224000266E3243226600220092DA6800929A6873
:102250000092009A012215420BD0256E2A43226675
:102260000022402502929A6802921A68AA431A60D4
:10227000029A002908D00822216E0A432266002211
:1022800003929A680392039A226E002ABDD0E0213D
:102290005A688A435A602200DF395D321170023178
:1022A000084225D05A68A06D8A435A60002809D098
:1022B000114B8363FFF71EF9002803D04023226EE1
:1022C00013432366606D00289FD00B4B8363FFF799
:1022D00011F9002899D04023226E1343236694E716
:1022E00000220192DA6801929B680193019B8CE7BE
:1022F0002000FFF775FF88E7FD220008806A0023B1
:10230000020010B50832D387C387FFF769FF10BDFD
:102310007047000010B51C4C0368A04206D0802214
:10232000D205904202D0194A904208D170229343BC
:102330004A681343164A1A40CB6813430BE0154A08
:102340009042F7D0144A9042F4D0144A9042F1D00F
:10235000134A9042EED0802293434A6913430360AC
:102360008B68C3620B688362A04208D00A4B984214
:1023700005D00A4B984202D0094B984201D10B6913
:1023800003630123436110BD002C014000040040A1
:10239000FFFCFFFF002000400040014000440140DE
:1023A0000048014070B504000120002C23D0250016
:1023B0003D352B78DAB2002B05D123003C332000C9
:1023C0001A70FFF7A5FF02232B702068211DFFF76D
:1023D000A1FF2200012300204832137047340A3A3B
:1023E000137053709370D370137153719371D371D1
:1023F000137223702B7070BD1F2310B50124194078
:102400008C408A40036AA3430362036A1A43026250
:1024100010BD0000020010B508291CD006D8002904
:102420000BD0042914D01300433308E00C2915D035
:102430001029F8D10300423301E003003E331B783A
:10244000013B581E8341DBB20120002B09D010BD97
:1024500003003F33F3E703004033F0E70300413369
:10246000EDE70223082936D006D800290BD004292D
:102470002ED01000433008E00C292FD01029F8D1BD
:102480001000423001E010003E3003701468012259
:102490002000FFF7B1FF1A4A944208D0194B9C4222
:1024A00005D0194B9C4202D0184B9C4219D1802375
:1024B000616C1B020B436364944202D0114B9C423B
:1024C00019D1A368124A1340062B10D10020BEE791
:1024D00010003F30D9E710004030D6E710004130FF
:1024E000D3E78023DB059C42EBD00A4BE7E7802251
:1024F00052029342EAD00123226813432360E5E7A6
:10250000002C0140004001400044014000480140CF
:10251000070001000004004070470000F8B5040007
:102520002569A26823682A4365691968C0692A4336
:10253000744D024329400A431A605A687249A569DA
:102540000A40E1680A4371495A608B4201D0226A0D
:1025500015439A686E4E32402A430F259A60DA6A14
:10256000AA43656A2A43DA626A4A934226D16A4BD1
:102570005A6D03231A4080231B02022A00D1BCE0BB
:10258000032A00D1B3E0012A00D1A9E0984200D18A
:102590007EE0FFF7A9FC002846D0626A5F4B52003C
:1025A000D15A03F067FC65686B08C018290003F076
:1025B00061FC80B202005A4B103A64E0594A9342DF
:1025C00012D10C22544B5B6D1340082B00D192E0CA
:1025D00005D8002B00D081E080231B02D6E70C2B0E
:1025E00000D182E0012020E04F4A9342F4D04F4ACC
:1025F0009342F1D08B42F5D1C0228021464B12018B
:102600005B6D090113408B4215D004D8002B07D114
:10261000FFF76AFC06E09342E4D1802636020BE025
:10262000FFF774FB061E07D10020414BA366002371
:1026300023676367F8BD3F4E626A384B5200D75A32
:102640003000390003F016FC032365686B438342B6
:10265000C8D82B038342C5D300233A0030001900A9
:1026600003F008FD0027060E0B02334302026E083A
:1026700092197B41100019002A003B0003F0FAFC7C
:102680002D4BC2182D4B9A42ACD82368D860CBE7AB
:10269000FFF72AFC0028C7D0626A204B5200D15AAB
:1026A00003F0E8FB656840006B082900C01803F0E0
:1026B000E1FB1B4982B2103A03048A4200D991E738
:1026C0000F221B03904380B222685B0F1843D06037
:1026D000AAE71848E0E7FFF719FB5CE780231B0235
:1026E0009842F8D1FFF712FBD4E780231B029842EF
:1026F000D2D0180051E780231B029842E9D00D4840
:102700004BE7C046F369FFCFFFCFFFFF00800040DB
:10271000FFF4FF110038014000100240348B000824
:10272000EFFF00000044004000480040004C004023
:10273000010001000024F40000FDFFFFFFFC0F007A
:10274000836A30B5DA0706D50168284C4A6822400A
:10275000C46A22434A609A0706D50168244C4A6835
:102760002240046B22434A605A0706D50168214C77
:102770004A682240446B22434A601A0706D5016822
:102780001D4C4A682240846B22434A60DA0606D513
:1027900001681A4C8A682240C46B22438A609A06F8
:1027A00006D50168164C8A682240046C22438A6070
:1027B0005A0610D50168134D4A68446C2A402243DA
:1027C0004A6080225203944205D14A680E4C22404E
:1027D000846C22434A601B0606D502680B49536885
:1027E0000B40C16C0B43536030BDC046FFFFFDFF83
:1027F000FFFFFEFFFFFFFBFFFF7FFFFFFFEFFFFF7E
:10280000FFDFFFFFFFFFEFFFFFFF9FFFFFFFF7FF70
:10281000F8B504000D0017001E002268D3692B4094
:102820005B1B59424B41BB4201D000202AE0069B72
:102830000133F3D0FDF712FF069B801B984201D8AD
:10284000002B20D1EFF31080012282F31088216841
:10285000214D0B682B400B6080F31088EFF3108044
:1028600082F3108821688B6893438B6080F3108813
:1028700023001F320833DA6780331A6000230320F5
:1028800080342370F8BD23681A685207C5D58022AA
:10289000D96912011142C0D01A62EFF310800122EF
:1028A00082F3108821680C4D0B682B400B6080F37D
:1028B0001088EFF3108082F3108821688B689343AF
:1028C0008B6080F31088220020230832D367803287
:1028D00013605360D2E7C0465FFEFFFF030073B58D
:1028E000002604008C331E60FDF7B8FE2368050047
:1028F0001B681B0719D423681B685B070AD5802156
:10290000104B0022009320002B00C903FFF780FF2B
:10291000002815D12200202300200832D3678032FE
:102920001360E066803420700BE08021054B32009C
:102930000093890303002000FFF76AFF0028DAD024
:10294000032076BDFFFFFF0170B5041E01D10120F9
:1029500070BD05000835EB6F002B04D102008032FA
:102960001370FFF7D9FD242301212268EB67136858
:1029700020008B431360FFF7D1FD0128E7D0A36A45
:10298000002B02D02000FFF7DBFE236807495A68BE
:1029900020000A402A215A609A688A439A600122DC
:1029A00019680A431A60FFF799FFD1E7FFB7FFFFE5
:1029B000020010B5803211780300022001290ED0E8
:1029C00001211170EFF3108081F310881968022340
:1029D0000C6823430B6080F310880020107010BD3A
:1029E000020010B5803211780300022001290ED0B8
:1029F00001211170EFF3108081F31088022419680F
:102A00000B68A3430B6080F310880020107010BD8A
:102A1000014B024A936070470000000800ED00E09F
:102A2000382210B51C4CA3681340182B2FD009D89E
:102A3000082B2FD0102B0AD0236818489B045B0F5B
:102A4000D84018E0202BF7D18020000213E0E36883
:102A5000E168DB434906490F01319B0715D1104856
:102A600003F008FAE368E1685B045B0E490F584322
:102A7000013103F0FFF9A3680A4A1B051B0F9B00F5
:102A80009B580949D840086010BD0448E8E7FA207F
:102A9000C001F0E70248EEE7001002400024F40015
:102AA00000127A006C8B0008C800002010B5036883
:102AB000012200211B69984710BD002210B5036850
:102AC00011001B69984710BD162040427047CD2366
:102AD0009B00C15400207047CD23E4389B00C154B3
:102AE00000207047CD239B00C05C7047CD239B0026
:102AF000E438C05C704700207047012070471D20FB
:102B0000404270470C4B10B5036003000B4AE4339E
:102B10001A60CE239B000400C058002802D003682E
:102B20005B689847C0239B00E01802F0F2FB20008E
:102B300000F06EFC200010BDB48B0008FC8B000878
:102B400008B4024B9C46E43808BC6047052B0008DB
:102B500010B50400FFF7D6FFCF212000890002F056
:102B600075FB200010BD000008B4024B9C46E43801
:102B700008BC6047512B000810B5826843680068A4
:102B800051104018D20701D50268D358984710BD9C
:102B900000207047012070471D2040427047CE231F
:102BA0009B00C358002010B5834205D0180000F0E8
:102BB00021FB431E9841C0B210BD000030B5002576
:102BC00087B0049B0299039A01950095040000F0D8
:102BD000CBFB024BE55407B030BDC04636030000C6
:102BE00030B50122002587B0049B01920299039A17
:102BF0000095040000F0B8FB014BE55407B030BD70
:102C00003503000070B5040001F0D4FE2300FC334E
:102C10005A689B6800259A4203D1FF34637A0135D4
:102C20005D4001F0DDFE280070BDC02370B50500D9
:102C30009B00C418200002F06DFB2800F530FF3027
:102C4000FFF7E0FF002804D0200002F064FB002022
:102C500070BD200002F05FFB012002F04BFBE9E7B2
:102C600008B4024B9C46E43808BC60472B2C000893
:102C700070B50500E830FFF7C5FF01244440280087
:102C8000E4B2FFF78CFF002804D080239B011C4393
:102C9000200070BDBF239B00EB5C002BF8D11033EC
:102CA000F5E7000008B4024B9C46E43808BC6047D6
:102CB000712C000870B504000D0001F07BFE2200AD
:102CC000FC3253682978E1548021013349008B425A
:102CD00005D9AF220B490C48520001F09BFD8B42F5
:102CE00000D100235360FF34617A002903D0936040
:102CF00001F076FE70BD92689A42F9D101236372A9
:102D0000F6E7C046C1820008D282000870B5040010
:102D10000E0001F04FFE22002100FC329368506843
:102D2000FF31984202D14D7A002D14D08020E35C0F
:102D30004000337093680133834205D9AF220849BC
:102D40000848520001F066FD834200D100239360E1
:102D5000002301254B7201F043FE280070BDC046E0
:102D6000C1820008D2820008C36810B5002B05D1CB
:102D7000FD2203490348520001F04CFD984710BD65
:102D8000608300086B83000884B070B5C926050015
:102D9000B60006920591079305AC01F00BFEAB1946
:102DA00007CC07C32268AC191A60002A08D0280093
:102DB0000649FFF75DFF002802D02000FFF7D4FF8F
:102DC00001F00EFE70BC08BC04B01847FF7F000085
:102DD00008B4024B9C46E43808BC6047892D0008C3
:102DE000CC239B00C35810B5002B04D0C9239B00F3
:102DF000C018FFF7B9FF10BDF7B50500E8350400AE
:102E00002800FFF7FFFEF82706007F00E35D002B98
:102E10000ED1200000F088FA002809D0200000F030
:102E20002FFB6B46D91D08702800FFF743FFEDE725
:102E30000A4BE35C002B05D0E35D002B02D02000A1
:102E4000FFF7BCFE002E07D02800FFF7DBFE0028AE
:102E500002D12000FFF7C4FFF7BDC04636030000D3
:102E600030B5040087B001F0A5FD2300BC331B780A
:102E7000002B15D00C4D635D002B11D12000FFF706
:102E8000BBFFF8235B00E35C002B09D107490193EA
:102E9000009120002100064A00F066FA01236355E4
:102EA00001F09EFD07B030BD36030000792B00080D
:102EB000F92D000870B5040000F0F2F9144B00255C
:102EC00023602300134AE4331A600133FF339D600B
:102ED0005D601D73BC239B00E3189D605D600E4B1D
:102EE000E3185D72C0239B00E01802F011FAC923B9
:102EF0009B00E318DD60CD2301229B00E252074BCB
:102F00002000E5540233E550FFF7AAFF200070BD12
:102F1000B48B0008FC8B0008F302000036030000AD
:102F2000F0B50500002085B00391019282422FD0B8
:102F3000C0239B00EE183000CD2402F0EBF9A40072
:102F40002F00E8373800FFF75DFE002818D1040095
:102F5000039B38001B190293FFF754FE002807D18A
:102F600038000299FFF7D2FE019B0134A342EFD152
:102F70002800FFF775FF300002F0CDF9200007E0D0
:102F80002B5D3000002B05D102F0C5F90B2040422B
:102F900005B0F0BD02F0BFF9012002F0ABF930003E
:102FA00002F0B8F9CCE7000008B4024B9C46E438C4
:102FB00008BC6047212F0008C02370B504000D0035
:102FC0009B00C618300002F0A5F92900200000F08F
:102FD0006DFA2000FFF744FF300002F09CF900205A
:102FE00070BD000008B4024B9C46E43808BC604742
:102FF000B92F0008BF239B0073B50400C65C2000F6
:1030000000F0A2F900280ED06B462000DD1DF5303F
:103010002900FF30FFF77AFE002804D0200029782D
:1030200000F033FAEBE70F4BE35C002B09D02000F4
:10303000F530FF30FFF7E6FD002802D02000FFF753
:10304000CFFD002E0CD0BF239B00E35C002B07D1EB
:103050002000FFF7A4FD002802D12000FFF7C0FEEA
:1030600073BDC04635030000F8B505000C0016001E
:103070002800F530FF30FFF7C5FD002804D0A71960
:10308000BC4205D13000F8BD2800FFF7B3FFEFE7E1
:103090002178280000F0F9F90134F1E770B5040057
:1030A00086B001F087FC2300BD331B78002B17D0BE
:1030B0000D4D635D002B13D12000FFF79BFF200017
:1030C000F530FF30FFF79EFD031E09D101260749A9
:1030D00020000091064A2100019600F045F966554E
:1030E00001F07EFC06B070BD35030000792B0008AE
:1030F000F52F0008F0B50500002085B0039102927D
:10310000824208D001F052FC061E06D02800029A26
:103110000399FFF7A9FF05B0F0BDC0239B00EB1892
:103120001800019302F0F6F8BF239B00EB5C002B24
:1031300016D13400039B9F1B029B3F19A34223D946
:10314000BF239B00EB5C002B1ED12800F53039001B
:10315000FF30FFF7AFFD0134ECE726000397E3E70C
:10316000CD239B00EB5C002B1CD0019802F0D3F820
:10317000012002F0BFF8019802F0CCF8BF239B00B9
:10318000EB5C002BF1D1D4E72800FFF787FF029B0F
:10319000A342E2D8019802F0BEF8201EBBD10B205A
:1031A0004042B8E73400F5E708B4024B9C46E438E7
:1031B00008BC6047F5300008C02370B504000D005E
:1031C0009B00C618300002F0A5F82900200000F08E
:1031D000BDF92000FFF762FF300002F09CF80020EC
:1031E00070BD000008B4024B9C46E43808BC604740
:1031F000B9310008836840681B681840431E984135
:10320000704770470300406810B5002811D00121B5
:103210001A69DC681140002C05D1002909D0511031
:1032200041580C5901E00029F9D1521099688018D1
:10323000A04710BD70B5030005000400C4334C3531
:103240001968280000F0FAFC2300D8331A68002A15
:1032500018D0103B1B68002B04D12300CC331B6813
:10326000DB070FD521002300E0310968DC3348106B
:103270001B682018C90701D50168CB582100D0313F
:10328000097898472300B83328001968FDF7F2FD44
:10329000280022000149FDF793F870BD9934000819
:1032A000F8B51E4B002503601D4B040043601D4B09
:1032B0000E00C36003004833856045618561C561C8
:1032C00005628584456345641700290000614C222E
:1032D0001D804C3002F08AFC230002229833FF321A
:1032E000DD60DD611F629A84B2882000DA84B289D1
:1032F00028331A805E609D60DD601D74220001230A
:10330000D2325B42138053802300D8331D605D604E
:103310009D60FFF78FFF2000F8BDC0464C8C000871
:10332000353200080532000870B5040003681B68D8
:10333000984720004C30FDF727FD0500236820004A
:103340005B689847280070BD70B5040003681B686F
:10335000984720004C30FDF727FD0500236820002A
:103360005B689847280070BD84B0F7B505000B93E3
:103370000DAB1E7803680A921B68099198472B00D1
:10338000BC331B78320109AC0192002B01D0002E16
:1033900016D02B00BD331B78002B01D0012E0FD08F
:1033A000019BEB18983343CC43C31A002368136086
:1033B0002B6828005B689847F7BC08BC04B0184726
:1033C00001F0F8FA2900370198370C9AEF194C31BF
:1033D000FB680191002A13D0002B01D101F0CAFC37
:1033E0003301EB18983383CC83C31A00236813602E
:1033F000012231000198FCF7EFFF01F0F1FAD7E765
:10340000002B01D001F0CCFC0022FA60F1E70000B3
:1034100070B50026144B86B002990360039A049B92
:10342000019600960400FFF79FFF012320000193FF
:103430000299049B039A0096FFF796FF2300BC3382
:103440001B78B34204D12300BD331B78B34203D0B1
:1034500020004C30FDF70AFC206A002801D001F062
:1034600023F8200006B070BD4C8C000810B5040095
:10347000FFF7CEFF2000E42101F0E8FE200010BDA0
:1034800010B54C30FDF702F810BD10B50C004C30F3
:10349000FDF732F8200010BD090198314018C368CB
:1034A00010B5002B01D0FFF75FFC10BDF8B504008C
:1034B00026000368BC361B680D0098473378AB4282
:1034C0001CD02700A437002D1DD101F073FA200075
:1034D0002A0029004C30FCF77FFF3B68002B32D1DB
:1034E00001F07EFA3570002D08D12300BD331B7822
:1034F000002B03D120004C30FDF7B8FB23682000DF
:103500005B689847F8BD2300BD331B78002B08D1BA
:10351000A268636850102018D20701D50268D358FA
:10352000984701F047FA3B68002BD9D0200098302B
:10353000FFF71AFC01F01EFC2000012200214C3094
:10354000FCF74AFFCCE701F02BFCC9E7F8B5040013
:1035500026000368BD361B680D0098473378AB42E0
:103560001CD02700B437002D1DD101F023FA200014
:103570002A0001214C30FCF72FFF3B68002B32D191
:1035800001F02EFA3570002D08D12300BC331B78D2
:10359000002B03D120004C30FDF768FB236820008E
:1035A0005B689847F8BD2300BC331B78002B08D11B
:1035B000A268636850102018D20701D50268D3585A
:1035C000984701F0F7F93B68002BD9D02000A830CC
:1035D000FFF7CAFB01F0CEFB0122200011004C30A6
:1035E000FCF7FAFECCE701F0DBFBC9E710B5036896
:1035F0001B68984710BD000010B50400074B00225F
:1036000023600023A260E36000230800A16123611E
:103610000349636100F084FA200010BD648C000847
:10362000ED35000807B5010000908069083100F011
:10363000B7FA07BD010010B58069083100F0C5FA7E
:1036400010BD704710B5EFF3108072B6054A1378BD
:10365000002B05D101210C00034B84431C70117019
:1036600010BDC0468C0600208D06002010B5EFF37B
:1036700010820123934304D036220649064801F004
:10368000C9F8064A1370064B1B78002B00D062B6AF
:1036900010BDC046E4830008008400088C060020AA
:1036A0008D060020014B18787047C0468C0600201C
:1036B00070B50D0004001600FCF794FF013507D02B
:1036C00000212000FCF7B6FF31002000FCF7ACFF22
:1036D00070BDF8B50D00040016001F00FCF782FF56
:1036E00001350CD02368002F0AD0A26801212000E8
:1036F0001360FCF79FFF31002000FCF795FFF8BD39
:10370000E268F3E710B5FFF7D3FF10BD10B5130063
:103710000022FFF7DEFF10BD10B50022FFF7F6FF15
:1037200010BD000000487047688C0008034B10B5BE
:103730001B68002B01D00248984710BDCC00002028
:10374000688C000807B5020008008A420AD0531CA2
:1037500008D0013005D0002303490448009301F04C
:1037600061FA10000EBDC0461A84000830010180C5
:1037700000228B5E5A1C01D1180002E0834201D165
:10378000486870470C31F3E713B50400431C0AD0B6
:10379000FFF7EEFF431C06D1002322000249034835
:1037A000009301F03FFA16BD2B8400083001018020
:1037B00000228B5E5A1C01D1180002E0834201D125
:1037C000886870470C31F3E7F7B54468230032335B
:1037D0001D78002D34D103685B689847226A030086
:1037E00082422DD0821A2069236210403322A256D1
:1037F000002A26DB290002F0D5FB34256557060098
:103800000F00002D16D00021606A0B0002009219F3
:103810007B41009201938D421BDB009801992A00A5
:1038200002F0B4FB2A0006000F0002F0BBFB009B75
:10383000181A6062A26AE36A92197B41A262E3628B
:10384000F7BDA16802002B000800290002F032FC3D
:10385000D3E7E5680B00009801992A0002F00AFC02
:103860004543009B06005B1B0F006362E2E7030019
:10387000824206D901208A4202D9994289414842AE
:10388000704700208B42FBD991424041F8E700008D
:10389000F0B54568414B2A6B060085B01A4271D1DC
:1038A000FFF792FF6B68002B00D16DE01A685B6830
:1038B000E96A994207D302D1A96A914203D33368D6
:1038C0005B6998475EE07468A06AE16A121A8B41EE
:1038D0001900E369100067698B4228D302D1A369FC
:1038E000834224D33422A256002A2DDB02F05AFB55
:1038F00023000090019133331B7800985BB29C4603
:10390000002B11D00021A368581E0393009A019B3D
:1039100012184B410092019363468B421DDB0098C5
:103920000199624602F032FB874200D90700236A00
:10393000FB1827691F402B6ABB4215D1CA221849C0
:103940001848FF3200F066FFE36802009C460B0057
:103950006046002102F0AEFBCAE70B000098019917
:10396000039A02F087FBDFE7336838001B6998474A
:1039700033685B6898473A000100286AFFF777FFD1
:1039800000289CD105B0F0BD2B6A6A6928699B1894
:10399000184033681B699847F4E7C04600FFFF00F2
:1039A000B8840008CA8400084368F0B51A003032B1
:1039B0001278040085B0002A7FD132331B78002BA7
:1039C0007BD103681B6898472368DB6998470668C2
:1039D0000700002E06D1330032003A493A480096DB
:1039E00001F020F930003949039102F0C9FA039837
:1039F0000029F9D10100354802F03CFA1F230122C9
:103A000065680290A860013B04D3110002989940B8
:103A10008842F8D12A00333213700399300002F043
:103A200029FA1F2302000121E86008009840824221
:103A300001D0013BF9D2290034310B707868011FA5
:103A40001C2905D900222249130022480092C7E709
:103A50000123202833D08340013B072000278840E2
:103A600016002B61029A3B006861C11702F022FB2D
:103A700002000B0001204042C117801979418018D3
:103A8000594132003B0002F0F5FA2368A861E96170
:103A90005B682F606F609847002128620122002038
:103AA00063689862D9625F621A86323320001F70A1
:103AB000FFF78AFE2000FFF7EBFE05B0F0BD5B428A
:103AC000CBE7C046EE8400080E01048040420F00A0
:103AD0000785000805010480F8B500264568069CA6
:103AE0000A608C606C684B60002C06D1CC60002EA4
:103AF0000DD16960FFF7CCFE11E067689F42F5D8F1
:103B000002D127689742F1D82600E468ECE7F1601B
:103B1000E96A994203D3EDD1AB6A9342EAD2F8BD88
:103B200070B504000D00FFF73FFF00F043FF63682E
:103B30001D6000F055FF70BD70B5050000F03AFF44
:103B40002B686C68DB689847230032331B78002BA6
:103B500002D000F045FF70BD2600012331363370DE
:103B60006368002B16D02800FFF72EFE6368E26A18
:103B7000596891420ED803D11968A26A914209D8B6
:103B80006A68DB68526863602368002BE8D090683D
:103B90009847E5E7002328003370FFF779FED8E760
:103BA000F7B504001E000D00170000F003FF200011
:103BB000FFF70AFE089B3A0029002000009333001B
:103BC000FFF78AFF00F00CFFF7BD70B505000C0091
:103BD00000F0F0FE6A685368A34208D1DB68280051
:103BE0005360FFF755FE00F0FBFE70BD1300002B85
:103BF000F9D0DA68A242F9D1E268DA60F3E770B589
:103C00000400FFF7D1FE00F0D5FE2000FFF7DCFD39
:103C100063689C6ADD6A00F0E3FE2900200070BD45
:103C200070470000034B10B51B68002B01D0024801
:103C3000984710BDD0000020948C000810B50C23CC
:103C4000CA5E0423C95EFDF789F910BD102304E0A4
:103C5000202302E0302300E040239C46F0B404AE71
:103C60007546E80801D3EFF309860E4F0FCE0FC754
:103C70000FBC0FC74046494652465B460FC71DCE94
:103C80003100A60A00D304316E0900D248311FC7A3
:103C9000EFF309806946EFF3148663C76046014974
:103CA00000F050F80007002030B5002585B01A4C10
:103CB000AB0029001948E258013500F061FE0D2DD6
:103CC000F5D1A36C16480293636C0193236C0093A7
:103CD000E36BA26B616B00F053FE124B1248196844
:103CE00000F04EFEE36C1B0712D5104800F048FEB2
:103CF000236D0F48DB0700D40E4800F041FEE36C53
:103D00000D485B0700D40D4800F03AFE05B030BD09
:103D10000B4800F035FEEFE7000700204385000860
:103D20005185000800ED00E0A0850008AE85000880
:103D3000BD850008CA850008ED850008F9850008E2
:103D4000DD850008F7B51B4F05000E003800012186
:103D500000F083FD0024A04216D1174800F010FEA9
:103D6000302D18D0402D1BD0202D1ED1134800F02F
:103D700007FE134C134800F003FEFFF795FF1248AF
:103D800000F0FEFD00233B700023320020000F49AD
:103D9000009300F047FF0E4800F0F2FD0D4CE9E7FC
:103DA0000D4800F0EDFD0D4CE4E70D4800F0E8FD96
:103DB0000C4CDFE7CD070020058600082E860008A2
:103DC0003E01FF805B860008668600088586000845
:103DD0003D8600083F01FF80468600084001FF80C5
:103DE000518600083D01FF8070B5050014001800E1
:103DF00013680B4A934208D8049A002A06D011008F
:103E000001F050FD431C06D1206070BD002D02D092
:103E10008B4200D2E854236801332360F5E7C046A3
:103E2000FEFFFF7FF0B591B016ABC0CB1B780390BF
:103E300002931AAB1B7804910592002118220AA85C
:103E4000069301F0D3FE20230793069B002B01D09D
:103E500030230793029B012B26D10025AF4228DA9D
:103E600033003C0000275E42A741029D0024029BD4
:103E7000023BDBB20893394B0993089B012B47D8CF
:103E80000F23029A3340022A40D1354A38073109BC
:103E9000D25C08433B0906001F000AABE254330022
:103EA00001343B43E9D10BE0029B1D1F6B425D4196
:103EB000EDB233003B43D9D13023012408AA137259
:103EC000002D47D0069B002B07D01B9B059A009323
:103ED00004992D230398FFF787FF199B01349C4217
:103EE00004DA199BA3421EDC002D0BD0069B002B8D
:103EF00007D11B9B059A009304992D230398FFF784
:103F000073FF013C002C1AD111B0F0BD099ABDE736
:103F1000300039000A22002302F0ACF830320600EB
:103F20000F00D2B2B9E71B9B059A00930499079B37
:103F30000398FFF759FF199B013B1993D1E71B9A8F
:103F4000013C0AABE35C049900920398059AFFF7E1
:103F50004BFFD7E7199B9C42C3DBD3E7EF8C0008EC
:103F6000FF8C0008F0B51D00002399B00F000890E9
:103F70000C9217939A421BD0994219DB012211929D
:103F8000994201D0013F119300230E930C9B0E9A8E
:103F90009B5C002B0FD1089B002B09D0119B002BA1
:103FA00006D1179BBB4200D963E2089A1199D154FC
:103FB000179819B0F0BD252B00D051E20E9B0C9A3A
:103FC0000133D25C203AD2B20D2A05D8BA49D14089
:103FD000C90701D50E9B02330C9AD25C2A2A11D153
:103FE000002201330435099210920C9AD25C2E2AD9
:103FF00041D10C995A1C895C2A2937D104CD02334E
:104000000D9226E000211091302A06D10C9A01333E
:10401000D25C302AFAD001221092002209920C9A26
:10402000581CD25C303AD1B20929DED80A21099B4A
:104030004B439B1809930300F1E70D9B63439B18C7
:104040000D9303000C9A581CD25C303AD1B2092966
:10405000F3D90C9AD15C68290FD1D2185178722209
:10406000682919D01C21954A525C15E013000022E2
:104070000A240D92E6E7924AC2E76C2907D10C9A0E
:10408000D218517882226C2906D02021EBE74C39D6
:10409000C9B200222E29E6D90F211140CB18149362
:1040A00014990C9B5C5C692C00D9CBE0572C00D98F
:1040B000B0E02300463B012B00D9C8E007230735B9
:1040C0009D432E0018CE180021001293139402F085
:1040D0001FF80A900B910A980B9902F053F802000E
:1040E0000B001298139903F035F9754B0D9A0E9049
:1040F0000F919A4200D111E1002A00D131E1002351
:1041000001251C0015930D9B159A934200DD08E1D3
:104110002800210002F036F80E9A0F9B02F052FEA2
:1041200000220E900F9112981399002301F05CFF6A
:10413000002800D101E10E9A0F9B0020614903F095
:1041400009F901F0E5FF069007918C420FDC01D1DF
:1041500085420CD801225242D3170A980B990024A9
:104160008018594100230A900B91069307940D9BE8
:10417000099A0133D31A0993DB43099ADB171A40D2
:10418000129B139C0E930F9409920A9B0B9A134354
:1041900000D0FAE00E980F990022002301F024FFCE
:1041A000002800D1F1E01E9B00220593109B049390
:1041B000099B039304230293002300920193390087
:1041C000089817AAFFF72EFE0D9B002B00D113E1D4
:1041D0001E9B3900009308982E2317AAFFF704FEB0
:1041E0001E9B0593012304930D9B039300230293CD
:1041F000069B079C009301944BE0082827D801F008
:104200002FFE120126002600000126006300260072
:104210002600630020005838112818D801F016FE37
:104220005400170017001700170017001700170099
:10423000170017001700E200260017004EFF4EFF80
:104240001700260020007038C3B2082BD5D91E9B5A
:10425000390000930898252317AAFFF7C5FD2E0003
:10426000252C00D1C8E00E9B1493C5E0822A16D1FC
:10427000072307359D432E002B686A6808361E9970
:1042800000930591109901920491099903910121DC
:1042900002913900089817AAFFF7C4FDACE02E0080
:1042A00008CE112A05D0722A01D0DA17E7E75BB2EF
:1042B000FBE71BB2F9E7C04609280000C08C0008E4
:1042C000FFFFFF7F0000E03F822A17D10723073559
:1042D0009D432E002B68696808361E9A0592109A35
:1042E0000492099A03920022752C03D00222582CC2
:1042F00000D10322029200930191CAE72E0001CE61
:104300000300C117512AE8D00021C3B2722AE4D0B9
:104310000300112AE1D1002183B2DEE706230D93C9
:10432000EDE60023280021000A2201F0C3FE159BC0
:10433000050001330C001593E5E600220E980F9955
:104340004E4B02F001F801F0E3FE069007918C421B
:1043500000DD0CE702D1854200D908E701220023E5
:10436000FBE600220E980F99444B01F051FE002805
:1043700018D00A980B9901220023801859410A90FD
:104380000B9100230024069307941E9B0593109B1A
:104390000493099B0393012302930A9B0B9C0093B4
:1043A00001940CE700220E980F99354B01F01CFE8A
:1043B000002812D00A980B9901225242D317801874
:1043C000594106900791069B079A134300D1EAE6EC
:1043D00003000C000A930B94D3E7002300240693F8
:1043E0000794D2E62E001E9A08CE39000092089853
:1043F000DBB217AAFFF7F8FC149B350001330E93CC
:10440000C4E52E000D9B10CEE5182378002BF3D0C9
:10441000AC42F1D01E9A39000092089817AAFFF713
:10442000E3FC0134F1E72E001E9B10CE3900089802
:10443000009317AA3023FFF7D7FC1E9B3900009387
:104440000898782317AAFFF7CFFC1E9B00940593CA
:104450000023E4170493039303330293019418E7B2
:104460001E9A39000092089817AAFFF7BDFC2E008B
:10447000F9E6089B119ADA559AE5C0460000E03F3C
:104480000000E0BF13B500240094FFF76BFD16BDDC
:1044900007B513000A00009002490020FFF762FDF3
:1044A0000EBDC046FFFFFF7F034B10B51B68002BFE
:1044B00000D0984710BDC0465407002010B5040036
:1044C00000F078FA200010BD10B5040000F088FA62
:1044D000200010BD036870B5012200211B69040093
:1044E0009847051E0DDB2368022200211B6920006E
:1044F0009847060023682900002220001B6998477E
:104500003500280070BD7047704700008E2210B53E
:104510000149024800F07EF9078700081487000867
:1045200010B504000800FFF76AFB206061602000FE
:1045300010BD000010B50400FFF75EF820000B4B23
:10454000A16923602030FFF7EBFF226A636AA26251
:10455000E3620022002322636363220000234032CF
:104560002000A363E363137010BDC046188D0008DC
:10457000030070B53F331D780400002D01D0FFF714
:10458000C5FFFFF757F8A58740342378002B02D0EA
:10459000257000F005FC70BD303110B50400080036
:1045A00000F050F920606160200010BD30B5026B52
:1045B000436B0124002512196B41FA240025A40045
:1045C00002634363826AC36A12196B418262C362E7
:1045D00030BD70B5826AC36AFA240025A40012199E
:1045E0006B41FFF71FF870BD030010B53C331A781C
:1045F0000400002A09D000221A7002331B7893426B
:1046000002D101233D34237010BD03003F331B78DA
:10461000002BF9D08022836BD20401338363044BD7
:104620005A60FFF7C3FF2000FFF7D3FFECE7C04657
:1046300000ED00E073B50D00060089696846FFF7DC
:104640006FFFA86AE96A009A019B121A8B411D004C
:1046500014001300002D0FD1FA229200934205D2CC
:104660000022002332607360300076BDFA22D2004F
:10467000934201D20122F4E7FA2200232000002114
:104680009200002D00DD290001F0F4FC3060716023
:10469000EAE700000B00F0B53F331B7805000C0083
:1046A00085B0002B05D10B003C331B780193002B08
:1046B00004D0E5221149124800F0ACF802A8FFF737
:1046C000B9FF029E039FFA22019B3000A3633900C9
:1046D0000023920001F0EEFCA26AE36A12184B413B
:1046E0002800A262E362226B636BB6185F41266307
:1046F00067632E606F6005B0F0BDC0460787000895
:104700001E870008F0B51F0003003F331B7804002C
:10471000160089B0002B04D058223749374800F0E2
:1047200079F803003C331B78002B0DD1010006A85B
:10473000FFF7B0FF079B069A9F4207D801D1964228
:1047400004D801233D34237009B0F0BD210006A830
:10475000FFF722FF069A079B04920593FA22002393
:1047600092003000390001F0A5FC226A636A8018CB
:10477000594125000122009001912100A287403576
:104780002B783E310391002B10D104980599A36931
:10479000361A8F411B689B18DB7F002B26D12A70AD
:1047A00000F0E8FA002F0ED1042E0CD80023039A53
:1047B00013702B78002B03D101232B7000F0DAFA51
:1047C000009A019B0EE02B78002BEFD1012300987B
:1047D0000199039A13700123094A5B4280185941D9
:1047E00002000B002000FEF71DFFADE7002FEDD10A
:1047F000042EDBD9EAE7C0460787000814870008C3
:1048000060F0FFFF10B500F031FE10BD10B500F0F4
:10481000B7FD10BD07B50B00009201000022014852
:1048200000F000FA4401FF8070B5050000F0C2F806
:1048300001232C782B70E4B2631E9C4100F0D0F869
:10484000E0B270BD70B5040000F0B4F8656824688B
:1048500000F0C6F82900200070BD70B504000E00FD
:1048600000F0A8F825782670EDB200F0B9F828001D
:1048700070BD70B505000E0000F09CF82C88A419DE
:10488000A4B22C8000F0ACF8200070BD70B505001B
:104890000E0000F08FF82C88A41BA4B22C8000F02E
:1048A0009FF8200070BD000030B589B001AC00F069
:1048B00081F805212000FEF72FFF0425A368226858
:1048C0000E481A6000F01CFDE36822680B481A606D
:1048D000013D00F015FD002DF0D10435A3682268DC
:1048E00007481A6000F00CFDE368226804481A606B
:1048F000013D00F005FD002DF0D1DEE7F04902009A
:10490000801A060037B5002201000400022000F0E2
:1049100045FB0D2500F04EF800222378002B02D134
:1049200000F05EF837BD0A2B08D10D2A06D06B4681
:1049300001220220D91DDD7100F030FB012221008F
:10494000022000F02BFB22780134E6E710B5A2B07C
:1049500002000B0001A88421FFF794FD04008328C6
:1049600005D9832005220549684401F0D4F9002CBB
:1049700002DD01A8FFF7C6FF22B010BD3B8700088B
:104980000FB407B504A901C90191FFF7DFFF03B018
:1049900008BC04B01847EFF3108301209843704718
:1049A000EFF30580431E9841C0B2704710B5FEF783
:1049B00079FE10BD10B5FEF745FE064A1368591C76
:1049C00004D13F2204490548FFF724FF0133136057
:1049D00010BDC04658070020B2870008C2870008F3
:1049E000054A10B51368002B05D0013B1360002B5E
:1049F00001D1FEF73BFE10BD5807002010B50C4852
:104A0000FFF712FF002805D0FFF7D4FFBFF34F8F49
:104A100020BFFDE7FFF7C4FF002801D0FFF744FFE8
:104A2000FFF7B9FF0028F9D0012000F0E7FBC046EE
:104A3000CC070020F7B52C4C0E002168C023019252
:104A40000A00DB0507001A408DB29A4200D14D42A0
:104A50000B1426482A00DBB2FFF792FF28003238F9
:104A6000FF3813280FD801F0E7F90A2D2F3133371B
:104A700035390E0E0E0E0E0E0E0E0E0E0E3B1C488F
:104A8000A168FFF77DFF3800FFF73CFF1948616818
:104A9000FFF776FF002E09D01748FFF733FF3000ED
:104AA000FFF730FF15480199FFF76AFFA168144826
:104AB000FFF766FF21681348FFF762FF1248FFF710
:104AC0005FFFF7BD1148DBE71148D9E71148D7E789
:104AD0001148D5E71148D3E71148D1E71148CFE78E
:104AE0001148FFF74DFFCEE760070020F38700086D
:104AF00044880008EC880008FD8800080589000843
:104B0000098900081D8900086C8900085A88000876
:104B10006A880008798800088C880008A088000846
:104B2000B4880008C3880008D988000870470000CE
:104B3000F0B504000E0017008FB0002800DB1D4CFC
:104B40003022002102A801F051F81B4B01ADE318FF
:104B50000194AE60012B02D9184B9C4220D1F36B1B
:104B60006B60736BEB61FFF725FF154A1368013328
:104B70001360012B04D134222900124801F0CBF834
:104B8000114C34222900200001F0C5F80F4B200001
:104B90001B68002B0AD09847FFF722FF0FB0F0BD2B
:104BA0000B4B9C42DBD02B006F60DBE7FFF7BEFFB7
:104BB000F2E7C0460101FF80C2FE007F4001FF8096
:104BC000C807002094070020600700205C07002031
:104BD0003D01FF800FB437B501210D487546FFF741
:104BE0003CFE041E11D101002A000A48FFF7A0FF75
:104BF000220021000848FFF71DFF069807A9019130
:104C0000FFF7A4FE0548FFF77DFEFFF7F7FEC0465D
:104C1000CD0700200001FF808689000883860008F8
:104C200000207047F7B5050001910A480121774639
:104C300016001C00FFF711FE002809D13A003100D0
:104C40002800FFF775FF2100089A0198FFF7F2FE90
:104C5000FFF7D4FECD07002070B5074D2868002867
:104C600008D1FEF75FFD054C01002000FFF762FC54
:104C700020002C6070BDC04618080020D00700201E
:104C8000836810B5002B04D1044B1B683D331878A2
:104C900010BDC06898470028F6D0F9E71808002032
:104CA00013B504002000FFF7EBFF00282BD122688A
:104CB0006368511C02D114498B4203D01349086820
:104CC000FFF720FD01A8FFF7F9FB2000FFF7D8FF51
:104CD000002815D1236801330BD10B4B62689A422F
:104CE00007D100F081F801A8FFF7EEFBBFF36F8F4B
:104CF000D8E7064B1B683C331B78002BF1D1F2E759
:104D000001A8FFF7E1FB13BDFFFFFF7F180800209C
:104D100070B504000D00160086B0002805D10029EA
:104D200001D01000884706B070BD431C1AD0FFF7B1
:104D300093FF01006846FFF7ADFC0098019922003F
:104D4000002312184B4102AC02920393049505967E
:104D5000FFF782FF2000FFF7A3FF044B1868FFF75F
:104D600007FCE0E70122024B5242ECE71808002062
:104D7000FFFFFF7F13B5074C01212000FFF779FDEE
:104D8000031E05D12288044900900448FFF74AFF1A
:104D900013BDC0461C0800209B8900082301048025
:104DA00013B5084C01212000FFF770FD064B984217
:104DB00006D100232288054905480093FFF732FFFA
:104DC00013BDC0461C080020FFFF0000BD8900087D
:104DD00024010480034B188880B243425841C0B27A
:104DE0007047C0461C08002010B5FFF7E3FDFFF731
:104DF000F1FF002804D0FCF729FAFFF7F1FD10BD00
:104E0000FCF710FAF9E700207047002070470120F6
:104E100010B500F0F3F90000074A08491368C018FC
:104E2000884205D90C220120054B40421A60704788
:104E300010601800FBE7C046D4000020008C002062
:104E4000700D0020012070470120704770477047A7
:104E500010B5FFF7FBFF10BD10B5FFF7F8FF10BD51
:104E600070B50400037803252B40012B07D0FFF712
:104E70004AFB22781540012D03D1FFF745FB0020A6
:104E800070BD002D04D005490548064AFFF7C2FC55
:104E90000223134323700120F2E7C0464D8A000825
:104EA0005F8A0008D306000010B5037803221900BA
:104EB0001140022904D006490648074AFFF7AAFC18
:104EC0009343012213430370FFF71EFB10BDC0463E
:104ED0004D8A00087D8A0008DC060000F8B506004F
:104EE00000203F2E27DC144DB4006059431C22D112
:104EF000022E20DC3000FFF788FF00281AD1300096
:104F0000FFF781FF002815D10C4F3800FFF7A8FFED
:104F100000280ED096220A4E0A4992013000FDF771
:104F2000C9FF3000084A0949FFF78CFF3800FFF736
:104F3000BBFF07482851F8BDD800002020080020FA
:104F4000240800201C8D0008C0000020052B00084C
:104F50000809002070B5041E06DA00F0AFFE092330
:104F600003600120404270BDFFF7B8FF0025084BE9
:104F7000A400E550A842F0D003685B69984704009C
:104F80002800002CEFDA00F099FE64420460E8E7A4
:104F9000D800002010B5FFF7DDFF10BD70B50C0084
:104FA0001500FFF79BFF002807D100F087FE0923BB
:104FB000036001246442200070BD036821002A00C0
:104FC000DB689847041EF6DA00F078FE644204605D
:104FD000EFE770B50C001500FFF780FF002807D140
:104FE00000F06CFE0923036001246442200070BDC0
:104FF000036821002A009B689847041EF6DA00F037
:105000005DFE64420460EFE710B5FFF767FF00281C
:1050100006D100F053FE092303600024200010BDD8
:105020000368DB699847041EF8DA00F047FE644223
:105030000460F2E7F7B506000D000092002A07DAD7
:1050400000F03CFE16230360012464422000FEBDF4
:10505000FFF7DAFF041E07D000273C001E4B9B5DC4
:105060000193009BBB4212DC009BA342EEDD1A1BA6
:1050700030002919FFF792FF431CE5D02418002CBB
:10508000E4DD2D19013D144B2A789A55DEE7EB5DDE
:105090000A2B1DD1019B0D2B1AD0BC420CDA30001B
:1050A0003A1B2919FFF77AFF431CCDD02418A742D9
:1050B000CCDC094B019A9A55012230000749FFF7D1
:1050C0006DFF431CC0D00028C0D00D22024B9A5562
:1050D000EB5D01370193C4E7600B0020B48A000840
:1050E00010B5FFF791FF10BD73B504000D00161E3B
:1050F00006DA00F0E3FD162303600120404276BD8E
:10510000FFF782FF002820D06B46DE1D0122310010
:105110002000FFF75EFF431CF1D00028EFD033786A
:105120000D4A0D2B08D1115D0A290AD019000A2356
:10513000012011552B70E2E70A2B04D1115D0D29D6
:10514000F4D11355E0E71900F2E7320029002000FE
:10515000FFF73FFFD3E7C046A00B002070B50C005F
:105160001500FFF7BBFE002807D100F0A7FD0923BB
:10517000036001246442200070BD036821002A00FE
:105180001B699847041EF6DA00F098FD644204603B
:10519000EFE710B5FFF7E2FF10BD10B5FFF79EFE79
:1051A000002806D100F08AFD092303600120404257
:1051B00010BD03689B699847040000208442F7DA19
:1051C00000F07CFD64420460F0E7000070B50A4D19
:1051D00004002B68986800F07FFA2B68D86800F00C
:1051E0007BFA0120FFF7D9FF0220FFF7D6FF002C42
:1051F00001D0FFF759FBFEE7E401002010B5FFF7EF
:10520000E5FF70B50D00FFF769FE041E06D100F042
:1052100055FD092303600120404270BD0368DB692E
:105220009847C02243425841D20143421340802252
:1052300092019B186B60236820009B6A9847286145
:105240000020EAE710B5FFF7DCFF10BD10B500F055
:10525000E1F810BD704770478023084930B5084811
:105260008C689B05E025E2182D065219126804C3CC
:105270008342F7D180239B058B6030BD00ED00E0B9
:10528000C000002010B5FFF7E7FFFBF707FCFCF7B5
:105290007BF810BD0A4A0B4B10B51A600A4B0B493C
:1052A0009B1A0B600A4A0B4B1A600B4B9B1A0B4A5A
:1052B00013600B4A1360FFF7E5FFFFF7CCFF10BD4B
:1052C000008C0020F00B002000900020EC0B002050
:1052D000780D0020E80B0020008C0020E40B00205B
:1052E000E00B002010B5FFF7B5FFFFF799FC00F0C9
:1052F00019F810BD002210B51100FFF709FD10BD0F
:105300008022D205516A536A5B1A8342FBD37047ED
:10531000704770477047704710B50400FEF791F969
:10532000200010BD10B5034800F06EFB9620FFF77B
:10533000E1FFFEE7B68A000810B50D4C1C220021E3
:10534000200000F053FC20000521FEF7E5F9094C90
:105350001C220021200000F049FC200001222D2108
:10536000FEF7D0F92000044A0449FFF76BFD10BD99
:10537000100C0020F40B0020C0000020195300087E
:1053800070B505000C1E10D0043C2368002B00DA19
:10539000E4182800FFF75CFD1D4A1368002B05D1B7
:1053A000636014602800FFF757FD70BDA34208D961
:1053B000206821188B42F3D119685B6809182160B5
:1053C000EEE71A005B68002B01D0A342F9D91168FF
:1053D0005018A0420BD12068091850181160834260
:1053E000E0D118685B68411811605360DAE7A042A9
:1053F00002D90C232B60D5E7206821188B4203D1FA
:1054000019685B680918216063605460CAE7C04688
:10541000300C002010B5034B01001868FFF7F6F9B7
:1054200010BDC046E401002070B50F4E0D0031687C
:105430000400002902D100F01BFC3060290020008C
:1054400000F016FC431C03D101256D42280070BDFD
:105450000323C51C9D43A842F8D0291A200000F060
:1054600007FC0130F2D1EFE72C0C0020F7B5032246
:10547000CB1C9343083305001F000C2B34D20C27A0
:10548000B94233D82800FFF7E3FC374E33681C00DD
:10549000002C2FD139002800FFF7C6FF0400431C61
:1054A0005FD134680094009B002B4AD1002C52D06D
:1054B00023682800E3180099019300F0D9FB019BB1
:1054C000834248D123682800FF1A3900FFF7ACFF58
:1054D000013040D02368DB19236033685A68002A02
:1054E00033D1009B336019E0002BC9DA0C232B6009
:1054F0000020FEBD2168C91B20D40B290AD9E2195E
:105500002760A34204D1326063681160536005E0F4
:105510005A60F9E76268A3420ED132602800FFF7B3
:105520009BFC200007220B30231D9043C21A984297
:10553000DFD01B1AA350DCE75A60EFE72300646852
:10554000A6E7009C63680093ADE71A005B68A3427E
:10555000FBD10023DAE70C2328002B60FFF77CFC4B
:10556000C6E70760DAE7C046300C0020F7B50C222A
:105570008B5E05000C001A075AD44A68002A02DC28
:105580000A6C002A4FDDE76A002F4CD000228021F0
:105590002E682A601A0049010A400B4234D0626D1D
:1055A000A3895B0706D56368D21A636B002B01D011
:1055B000236CD21A00232800E76A216AB8470C231B
:1055C000E25E431C06D129681D292ED82B4BCB4007
:1055D000DB072AD50023636023692360D20405D545
:1055E000431C02D12B68002B00D16065616B2E60DB
:1055F000002918D023004433994202D02800FFF735
:1056000005F9002363630EE001232800216AB847EF
:105610000200431CC4D12B68002BC1D01D2B01D02C
:10562000162B1DD12E60002021E0402313431BE0E8
:105630000E69002EF7D00F680E60BA1B019200228F
:105640009B0700D14A69A260019B002BEBDDA36A96
:1056500032001F002800019B216AB847002807DCA0
:105660004023A28913431BB20120A3814042FEBD07
:10567000019B36181B1A0193E6E7C0460100402043
:105680000B6970B505000C00002B02D10025280025
:1056900070BD002804D0036A002B01D100F0C4F8CB
:1056A0000C22A35E002BF1D0626ED20704D49B05BE
:1056B00002D4A06D00F02DFB28002100FFF756FF5B
:1056C000636E0500DB07E2D4A3899B05DFD4A06DE0
:1056D00000F020FBDBE70000010010B5002805D139
:1056E000054A0649064800F0E7F810BD054B186862
:1056F000FFF7C6FFF9E7C046D80100208156000831
:10570000E8010020E4010020002310B5040003603C
:105710004360836081814366C28103614361836129
:10572000190008225C3000F061FA0B4B24626362BE
:105730000A4BA3620A4BE3620A4B23630A4B9C4267
:1057400005D00A4B9C4202D0094B9C4203D1200059
:10575000583000F0DDFA10BD1D5A0008455A000807
:105760007D5A0008A95A0008340C00209C0C002027
:10577000040D002010B5034A0349044800F09CF8CA
:1057800010BDC046D801002081560008E801002065
:1057900041680B4B10B50400994201D0FFF770FF30
:1057A000A168084B994202D02000FFF769FFE16829
:1057B000054B994202D02000FFF762FF10BDC046A2
:1057C000340C00209C0C0020040D002010B5094B67
:1057D000094A04211A6009480022FFF795FF0122B7
:1057E00009210748FFF790FF022212210548FFF721
:1057F0008BFF10BD6C0D002075570008340C002085
:105800009C0C0020040D002010B5024800F081FA25
:1058100010BDC046740D002010B5024800F07AFAA1
:1058200010BDC046740D002010B50400FFF7ECFF5A
:10583000236A002B02D0FFF7EFFF10BD044B236259
:10584000044B1B68002BF6D1FFF7C0FFF3E7C046FF
:10585000915700086C0D002070B505000E00140073
:10586000002804D0036A002B01D1FFF7DDFF636E2F
:10587000DB0705D4A3899B0502D4A06D00F049FA8B
:1058800028002200310000F033F8636E0500DB07CA
:1058900005D4A3899B0502D4A06D00F03BFA280033
:1058A00070BD000010B5034B0A0001001868FFF737
:1058B000D3FF10BDE4010020F7B5140000260090CE
:1058C0000191A5686768013F04D52468002CF8D1D0
:1058D0003000FEBDAB89012B08D90E22AB5E01332F
:1058E00004D029000098019B984706436835EAE7F1
:1058F00070B506000D001400002804D0036A002BC8
:1059000001D1FFF791FF636EDB0705D4A3899B05E7
:1059100002D4A06D00F0FDF9A368013BA360002B49
:1059200005DAA269934212DBEBB20A2B0FD023688F
:105930005A1C22601D70EDB2636EDB0705D4A3898B
:105940009B0502D4A06D00F0E5F9280070BD290088
:105950002200300000F0AEF80500EDE7036A70B5F4
:1059600005000E008468002B01D1FFF75DFF636E18
:10597000DB0705D4A3899B0502D4A06D00F0C9F90B
:10598000A3891B0702D52369002B1FD12100280002
:1059900000F0D2F8002819D001256D42636EDB07B4
:1059A00005D4A3899B0502D4A06D00F0B3F92800AB
:1059B00070BD0136A360002B04DAA269934216DBA6
:1059C0000A2914D023685A1C22601970A368317800
:1059D000013B0029EDD1A360002B0FDA2200280043
:1059E0000A3100F067F80130D6D00A25D6E7220048
:1059F000280000F05FF80130E8D1CDE723685A1C99
:105A000022600A221A70F0E710B5034B01001868F3
:105A1000FFF7A4FF10BDC046E401002070B50C00E4
:105A20000E25495F00F010F9002803DB636D1B1899
:105A3000636570BDA389024A1340A381F9E7C0469C
:105A4000FFEFFFFFF8B51F008B8905000C00160063
:105A5000DB0505D50E23C95E0022022300F0E0F825
:105A6000A389054A28001340A38132000E23E15E7A
:105A70003B0000F00FF9F8BDFFEFFFFF70B50C0021
:105A80000E25495F00F0CCF80C22A35E421C03D126
:105A9000044A1340A38170BD802252011343A381A5
:105AA0006065F8E7FFEFFFFF10B50E23C95E00F059
:105AB000A5F810BDF8B506000D001400002804D0AC
:105AC000036A002B01D1FFF7AFFEA369A360A3898E
:105AD0001B0702D52369002B09D12100300000F0FB
